:020000041000EA
:1000000000B5324B212058609868022188439860DF
:10001000D860186158612E4B002199600221596106
:100020000121F02299502B49196001219960352056
:1000300000F044F80222904214D00621196600F024
:1000400034F8196E01211966002018661A6600F04E
:100050002CF8196E196E196E052000F02FF8012189
:100060000842F9D1002199601B49196000215960AB
:100070001A491B48016001219960EB211966A021F2
:10008000196600F012F800219960164914480160C1
:100090000121996001BC002800D000471248134993
:1000A000086003C880F30888084703B5996A0420EC
:1000B0000142FBD001200142F8D103BD02B5186610
:1000C0001866FFF7F2FF186E186E02BD00000240BE
:1000D000000000180000070000035F00212200005C
:1000E000F4000018222000A00001001008ED00E03C
:1000F00000000000000000000000000074B24E7A12
:1001000000200420F7010010C3010010C5010010F9
:10011000C1010010C1010010C1010010C101001097
:10012000C1010010C1010010C1010010C701001081
:10013000C1010010C1010010C9010010CB01001065
:10014000CD010010CD010010CD010010CD01001037
:10015000CD010010CD010010CD010010CD01001027
:10016000CD010010CD010010CD010010CD01001017
:10017000CD010010CD010010CD010010CD01001007
:10018000CD010010CD010010CD010010CD010010F7
:10019000CD010010CD010010CD010010CD010010E7
:1001A000CD010010CD010010CD010010CD010010D7
:1001B000CD010010CD010010CD010010CD010010C7
:1001C00000BE00BE00BE00BE00BE00BE00F04BF888
:1001D000103800BEF2EB8871C8820010E482001073
:1001E0003402001090A31AE700202149086006C8D5
:1001F00081F3088810471F48006800282FD10DA4FC
:100200000ECC002902D000F012F8F9E71A491B4A77
:10021000002000E001C19142FCD1194988471949E9
:1002200088471949884700BEFDE701C901C29A42C3
:10023000FBD37047E4820010C0000020B803002008
:10024000DC8500100000042000000420DC85001084
:1002500000100420001004200000000070470B482C
:1002600003F098FE0047EFF30580C0B2704700002E
:1002700008ED00E0000000D0B8030020B408002022
:10028000952900100D030010512900105756000049
:1002900006005250ABB360539480001006005250D9
:1002A000861C0302A4800010060052505422A29D16
:1002B000B480001005005250DE65F468DC85001043
:1002C000F8B5C04610B5064C2378002B07D1054B76
:1002D000002B02D0044800E000BF0123237010BDB2
:1002E000B80400200000000038550010044B10B581
:1002F000002B03D00349044800E000BF10BDC046F6
:1003000000000000BC0400203855001070B586B015
:100310002E4B059301235B42049306330393013B69
:100320000293033B0193002300933C2203212848BE
:1003300000F0D0FA274B1860431C02D1002006B011
:1003400070BD234E01220021300000F0CBFF7F2141
:10035000300000F0B5FB01240394002502950194C0
:100360001D4B0093230004222900300000F0BAFB4B
:10037000039402950194194B00930223082229004B
:10038000300000F0AFFB039402950194144B0093EE
:10039000032308222900300000F0A4FB03940295F7
:1003A0000194104B009304231A002900300000F040
:1003B00099FB0394029501940B4B0093052318229B
:1003C0002900300000F08EFBB8E7C04640420F0025
:1003D000600600208C06002038550010445500109F
:1003E000505500105C5500106C550010D0231B06B2
:1003F0005B68C34001201840704701238340D0222E
:10040000120653629361704701238340D022120683
:1004100053629361704710B5040000F0DFFF0123C1
:10042000A340D0221206936210BD10B5040000F064
:10043000D5FF0123A340D0221206936210BDF8B568
:10044000CE46474680B50C000378994643789846D7
:100450008768002515E04846FFF7D6FF4046FFF7BE
:10046000E4FFFE173800310001F0CAFE4046FFF7F6
:10047000C4FF6400E4B23800310001F0C1FE013570
:10048000EDB2072D06D863B2002BE4DA4846FFF739
:10049000C2FFE3E74846FFF7BEFF4046FFF7C5FF50
:1004A000FD173800290001F0ABFE4846FFF79EFF1C
:1004B00004004046FFF7A1FF3800290001F0A0FE2C
:1004C0004846FFF7A1FF60426041C0BCB946B04654
:1004D000F8BDF8B5060014001700012000E029005F
:1004E000002F0AD0012808D14D1C09783000FFF7F1
:1004F000A6FF0128F3D1013FF1E7012801D0002038
:10050000F8BDE01BFCE770B505000C001600007894
:10051000FFF77AFFA868002101F072FE6878FFF704
:100520006CFF6100C9B2002E01D00131C9B22800B0
:10053000FFF785FF70BD10B504000078FFF764FF7A
:10054000A068002101F05CFE6078FFF76EFFA068F4
:10055000002101F055FE2078FFF75DFFA068002123
:1005600001F04EFE10BDF8B506000F000078FFF751
:1005700052FF0025002404E07078FFF73EFF0134AD
:10058000E4B2072C11D8B068002101F039FE707870
:10059000FFF74BFF6D00EDB23078FFF727FF002823
:1005A000EAD001231D43EDB2E6E7002F15D03078E5
:1005B000FFF731FF7078FFF738FFB068002101F0D6
:1005C0001FFE7078FFF719FFB068002101F018FED8
:1005D0003078FFF719FF2800F8BD3078FFF714FFD7
:1005E000E8E7F8B507000C0009E0661C69426941BC
:1005F000C9B23800FFF7B7FF20702A003400551E3B
:10060000002AF2D1F8BD000070B504000D000028EA
:100610000AD08378002B08D100789F281BD9234B60
:100620009D4228D90023A36070BD214804F0E0FE5C
:100630002078032100F0A0FE6078032100F09CFEEA
:1006400020780022012100F0AFFE60780022012115
:1006500000F0AAFEE8E700F0C1FE607800F0BEFE00
:100660002278012319009140D0221206916261780C
:100670008B409362D3E70F4B9D4202D90123A360C5
:10068000D2E70D4B9D4202D90223A360CCE70B4B6E
:100690009D4202D90A23A360C6E72900084803F057
:1006A000CDFC0004000CA060BEE7C0463F420F0036
:1006B00090030020FF340C007F1A06009F86010083
:1006C00040420F0030B585B004008578002D0BD175
:1006D0000022FFF718FF002800D001252000FFF7B7
:1006E0002AFF280005B030BD0023009301330F22FC
:1006F0006A44034804F0B4FEC543ED0FF1E7C04679
:1007000090030020F0B583B0040017001E0083782A
:10071000002B0BD10022FFF7F6FE0500012811D0B7
:100720002000FFF708FF280003B0F0BD012300936D
:100730003300084804F088FE002801DB3500F2E7AA
:100740000025F0E7320039002000FFF7C2FE050067
:10075000E6E7C04690030020F0B585B006000F0024
:100760001D000F236B441A708378002B0BD10022DD
:10077000FFF7C9FE040001281AD03000FFF7DBFEA6
:10078000200005B0F0BD012300930F226A441548F4
:1007900004F05AFE002802DAC043C40FF0E7002339
:1007A00000930A9B2A0039000E4804F059FEF3E733
:1007B00001220F2169443000FFF78BFE040001285D
:1007C000DBD13000FFF7B7FE012239003000FFF720
:1007D0009AFE04000128D0D10A9A29003000FFF7C0
:1007E00000FFCAE79003002010B50C001300017849
:1007F00010302200FFF786FF10BD10B582B001ABAC
:1008000000241C7059709A7003221900FFF7ECFF46
:1008100002B010BD10B582B00C00D1010919C16041
:10082000002B25D0C378052B0BD0042B0FD0062B23
:1008300020D0072B0CD11C348378002B08D1033235
:1008400006E020348378002B02D1043200E0023429
:1008500001A900230B70503B1A434A705F332340B9
:100860008B70241110231C43CC700422FFF7BCFFB3
:1008700002B010BD8378002B01D02034E8E70232AB
:10088000E6E770B5A2B005000E00140001AA4021F1
:100890001170002B12D1686800280DD0EB689C46BF
:1008A00060442200310004F0B3FAEB689C466444D3
:1008B000EC60A405A40DEC6022B070BD22003100F4
:1008C0006B46581D04F0A4FA621C01A92800FFF72A
:1008D0008BFFE0E7F0B5C64600B584B004000D001C
:1008E00017001E0000234360C170867043700B9B8D
:1008F00083740C9B03740D9B43746A4B0E9A1A60AD
:1009000001235B42684A1360684A136011339846BA
:1009100080440F994046FFF777FE7B1C012B01D9DD
:10092000FF2F32D13C214046FFF7CCFE3C21404610
:10093000FFF7C8FE00281ED03C2323700B276F440E
:1009400000233B702178013300933B000022404696
:10095000FFF702FF3A780F2313403B70072B23D099
:100960000F2B21D0082B36D0032B38D0062B38D0B4
:1009700001277F421EE03D214046FFF7A3FE0028ED
:1009800000D18CE03D232370D8E7FFB227703900F7
:100990004046FFF797FE39004046FFF793FE0028D8
:1009A000CCD101277F426AE00123E37073425E41AC
:1009B000F6B2042723783D2B15D0022D15D0062D35
:1009C00013D0012D2ED0072D32D016223849200009
:1009D000FFF70AFF0EE0043BE3700227EAE7002777
:1009E000E8E70027E6E70137E7E71822314920006A
:1009F000FFF7FAFE0A9B002B20D1002E29D180237D
:100A0000A372403BE372062D35D0022D3CD0012D60
:100A10003DD0052D3ED0072D31D14823A372203B78
:100A2000E3722CE0162224492000FFF7DDFEE1E707
:100A30001A2222492000FFF7D7FEDBE700236A468F
:100A40001373A7335373022203A92000FFF7CCFED0
:100A5000D3E703AE00233370A0337370022231005A
:100A60002000FFF7C1FEC023737002223100200076
:100A7000FFF7BAFEC3E72033A372503BE37238009E
:100A800004B080BCB846F0BD2023E372F7E78023B2
:100A9000E372F4E74023A372203BE372EFE7012700
:100AA0007F42ECE75C060020580600205406002038
:100AB000A85500109055001078550010C055001032
:100AC00010B50A008121FFF798FE10BD002305E054
:100AD0000278D243027001300133DBB28B42F7D38C
:100AE00070470000F0B5DE4657464E464546E0B535
:100AF0008FB004000D00511C03D0591C01D00272AC
:100B00004372217AA37A994200D3C3E3627AE37AEB
:100B1000DB089A4200D3C0E31B9B2000FFF77AFE5C
:100B2000199B012B19D0199B042B78D0199B022BF0
:100B300000D130E1199B032B00D19BE2199B002BC4
:100B400000D0BDE30621280003F050FA199F2A00C7
:100B50000D00189B9846160059E307272F400026E2
:100B60002A003D00189B9846170014E0082104A8AD
:100B7000FFF7ACFF30E000232372627A0132D2B279
:100B800062721B9B00212000FFF744FE002500E05D
:100B90000025083F0136227AA37A9A4200D37FE3E8
:100BA00043469A5D002A00D17CE3617AE37ADB0850
:100BB000994232D2072FECDC203AD100891A002367
:100BC00004AA1370C84A8918072204AB581C04F001
:100BD0001FF91A9B002BC9D10822531B9A46237A6E
:100BE00052469918A27A914201DDD31A9A462900F9
:100BF00004AB9C4661441B9B52462000FFF741FE1C
:100C0000227A5244D2B22272A37A073B9A42BFDBC5
:100C10006378002BAFD10025BBE7002054E30B33F2
:100C20002B4098460023AA461D00189B99461B9B03
:100C30009B4646E0102104A8FFF748FF6CE0102116
:100C400004A8FFF743FF81E0217A02325B462000CF
:100C5000FFF7E0FD31002031102204A804F0D8F89D
:100C60001A9B002B06D15B463A0041462000FFF755
:100C700008FE75E0102104A8FFF728FFF3E7217AAA
:100C800003325B462000FFF7C5FD310030311022F2
:100C900004A804F0BDF81A9B002B06D15B463A006D
:100CA00041462000FFF7EDFD5DE0102104A8FFF7AD
:100CB0000DFFF3E70023984610235B429C46E24475
:100CC0000135217AA07A814200D3EDE2627AE37A9B
:100CD000DB08033B9A4200DBE8E24B465E5D002EF8
:100CE00057D053460F2BE7DC203EF6B2B6017F4BC0
:100CF000F61810274346FF1ACB19834200DD471A26
:100D00005B462000FFF786FD1022310004A804F0A6
:100D10007FF81A9B002B8DD104AB9C46E0445B46C8
:100D20003A0041462000FFF7ACFD217A627A013299
:100D30005B462000FFF76EFD31001031102204A841
:100D400004F066F81A9B002B00D078E75B463A0067
:100D500041462000FFF795FD627A052A00D873E727
:100D6000627A042A8BD9237ADF19FFB22772A37A19
:100D70000F3B9F429EDB6378002B07D0002323723A
:100D8000637A043363720023984695E700239846FC
:100D900092E7002098E20C21280003F027F9029145
:100DA00000230093AB4633E1062104A8FFF78EFE33
:100DB00054E19200D2B20133032B0CDC080018413D
:100DC000C00700D51643181D0C0004412000C007C1
:100DD000EFD51543EDE74C4604AB1E5563465E70F8
:100DE0001D735D730137052F0CDCFC1C6400A446E9
:100DF00004AB9946CC44D95D03220025002600238C
:100E0000A146D9E70027C446A4E0420001320124EC
:100E1000A146944062B27C78144364B2A0467C70D0
:100E2000BC78224354B20394BC70441C6400A246B4
:100E30004C465246944062B2444614437C70039C34
:100E40001443BC705B00DBB24900C9B20130062814
:100E500000DD7DE02A001A401D4205D01E4203D16C
:100E60000D4201D10E4207D1002A41D11E423FD08E
:100E70000D423DD00E423BD10228C6DD03281ED0D4
:100E8000021F520001320124A146944062B27C7BD1
:100E9000144364B2A0467C73BC7B224354B20394D7
:100EA000BC73C41E6400A2464C465246944062B2D3
:100EB000444614437C73039C1443BC73C2E77A78A2
:100EC000904680225242444614437C70BC782243B0
:100ED000BA70012290467A7B444622437A73BA7BE9
:100EE0002243BA73AEE7C046DC6D0010DC5500103B
:100EF000002AA7D11E42A5D00D42A3D00E42A1D1F7
:100F0000032813DC4200013290460122924614006D
:100F1000424694407A7814437C70421C52005446F6
:100F200094402200BC782243BA708BE7021F520023
:100F300001320124A04694407A7B22437A73C21E78
:100F40005200444694402200BC7B2243BA7379E7A6
:100F5000019C2700042F0CDC04ABDD5D7C1C1E5DB6
:100F600003377F0098464744022101230020019463
:100F70006DE764460C26029BF61A217A8A19A37A39
:100F80009A4200DD5E1A627A1B9B2000FFF742FC4A
:100F9000029DA91D04AB9C4661441B9B32002000AE
:100FA000FFF76FFC217A627A01321B9B2000FFF76A
:100FB00031FC2900123104AB9C4661441B9B32007A
:100FC0002000FFF75EFC237A9E19F6B22672A37A00
:100FD0000B3B9E4213DB6378002B02D1002302936C
:100FE0000FE000232372627A0232D2B262721B9B3C
:100FF00000212000FFF70EFC0023029301E00023F4
:1010000002930C235B429C46E344009B0133009314
:10101000227AA37A9A4200D34AE1627AE37ADB0821
:10102000013B9A4200DB45E1189B009A9B5C002B38
:101030001ED05A460B2AE4DC203BD9B28B0059184B
:10104000A64BC918002304AA1370062204AB581C2F
:1010500003F0DEFE1A9B002B00D0A5E6182200212B
:1010600004AB981D03F0CEFE00231F00A046BAE695
:10107000002029E10C332B409B4600239A46D94699
:10108000AB467FE0082104A8FFF720FDA0E0920016
:10109000D2B20133032B0CDC08001841C00700D585
:1010A0001643181D0C0004412000C007EFD515435E
:1010B000EDE7009C404604AB1E5563465E701D7410
:1010C0005D740137072F0DDC3C1D6400A44604ABA2
:1010D0009846C444D95D03220025002600230094CD
:1010E0008046D7E7040010234A469B1A9846017AA7
:1010F000CA18837A9A4201DD5B1A9846627A1B9B72
:101100002000FFF787FB4946083104AB9C46614449
:101110001B9B42462000FFF7B4FB217A627A013222
:101120001B9B2000FFF776FB4946183104AB9C4619
:1011300061441B9B42462000FFF7A3FB237A4344F4
:10114000DBB22372A27A0F3A934213DB6378002B4F
:1011500002D1002399460FE000232372627A023203
:10116000D2B262721B9B00212000FFF753FB0023C9
:10117000994601E0002399465B46103B9B46534647
:1011800001339A46227AA37A9A4200D394E0627A93
:10119000E37ADB08013B9A4200DB8FE0189B524662
:1011A0009B5C002B1CD05A460F2AE5DC203BDBB2AF
:1011B000D900C91A4A4BC918002304AA1370072280
:1011C00004AB581C03F024FE1A9B002B00D059E7F7
:1011D0002022002106A803F015FE0027200071E759
:1011E000002071E0062104A8FFF770FC2FE0002327
:1011F0002372627A0132D2B262721B9B00212000FC
:10120000FFF708FB199D00E0199D063E0137227A81
:10121000A37A9A4257D2627AE37ADB089A425AD288
:101220004346DB5D002B33D0052EEEDC203BD9B2EC
:10123000002304AA13708B005918284BC9180522E3
:1012400004AB581C03F0E4FD1A9B002BCAD1062204
:10125000531B9A46237A52469918A27A914201DD8D
:10126000D31A9A46290004AB9C4661441B9B524604
:101270002000FFF706FB227A5244D2B22272A37AF0
:10128000053B9A42C0DB6378002BB0D1199DBCE7C7
:10129000199819E00120404216E00120404213E075
:1012A000002011E000200FE000200DE000200BE006
:1012B000002009E0002007E0002005E0002003E016
:1012C0000120404200E019980FB0F0BCBB46B24686
:1012D000A946A046F0BD1998F6E7C0467C700010FC
:1012E000DC6D0010F0B5D6464F464646C0B584B01A
:1012F00005008A461600C37ADB089946877A3F09BB
:101300001022684603F07EFD00236B722B72984614
:1013100010E03300102269462800FFF7B2FA0134CA
:10132000E4B2BC42F5D3EB78072B0DD04346013332
:10133000DBB29846C8450ED2330042460021280051
:10134000FFF768FA0024ECE733000822694628001A
:10135000FFF797FAEAE76868002806D0AB7AEA7ADE
:101360005A43D210514603F04DFD04B0E0BCBA46DA
:10137000B146A846F0BD000010B58300084A944667
:1013800063441C6840226240C02414408022520101
:1013900013431C60C000034B9C466044416010BD79
:1013A00004C001400040014080000B4B9C4660445B
:1013B00000290DD00823002A0CD004221343026810
:1013C00053400C22134080225201104303607047A7
:1013D0000023F0E70022F1E704C0014010B501232B
:1013E0008340D0221206936293610521FFF7C4FF68
:1013F00010BD0000EFF3108072B6034B1B68002B8A
:10140000FBD0BFF35F8F70472C0100D0BFF35F8F1D
:10141000024B00221A6080F3108870472C0100D024
:10142000F8B506000C001500FFF7E4FFE308F71815
:10143000F15C07222240012393400B4205D1DBB22D
:101440000B433B70FFF7E2FFF8BD2100280001F0DD
:101450001DFB0000034B1B6802201840431E9841EF
:10146000C0B2704700C00640002307E0054A9A1842
:101470009200BFF35F8F0021116001331F2BF5D95C
:101480007047C04640000034054A1078431CDBB268
:101490001370172B02D9130010221A707047C04620
:1014A000F0020020074B9B68103080001950BFF3FA
:1014B0005F8FBFF35F8F044B0021196082F31088A8
:1014C0007047C04600ED00E0240100D010B5091AB5
:1014D000081F0A4B9C466144094A914208D8C30739
:1014E00006D440104005400D064B184380B210BD95
:1014F000054B064A9921064801F02EFAFC07000028
:10150000FE0F000000E0FFFF5C720010A0740010EE
:101510008C72001010B5091A04394C08090B08D157
:101520004905490D064A11430180064B2343438078
:1015300010BD054B054AA121054801F00DFAC04632
:1015400000F0FFFF00F8FFFFCC7200107474001071
:101550008C72001001238340034A10681840431E18
:101560009841C0B27047C04600E100E0002904D0B5
:10157000034B1860034B18607047034B1860FBE780
:1015800080E200E000E100E080E100E010B501232E
:1015900083401800FFF7EAFF10BD0000024B9B6874
:1015A00010308000C058704700ED00E070B50400B6
:1015B0000D00EFF3108672B60C4B1B68002BFBD0AE
:1015C000BFF35F8F2000FFF7E9FF094B984201D07E
:1015D000A84205D1320029002000FFF763FF70BD4B
:1015E000044B054A7C21054801F0B6F9240100D0DE
:1015F000CD010010DC720010BC7400108C72001061
:10160000F0B5CE46474680B583B006000D00EFF337
:10161000108872B6564B1B68002BFBD0BFF35F8F50
:10162000544B9A6834001034A300D758524B9F4251
:1016300007D0AF4200D199E00197504BFB1A2F2BF6
:1016400009D9424639003000FFF72CFF03B0C0BC77
:10165000B946B046F0BD3000FFF77CFF814600215F
:101660003000FFF793FFBFF35F8FFEF7FCFD00280C
:1016700001D0844211D10123019C9C430022A36824
:10168000AB4212D00622A256002A0DDB53009B1853
:101690009B002200394CE418F1E72C21384B394AE1
:1016A000FF31394801F058F92200AB4257D10625E5
:1016B0006557002D39DB6B005B199A002F4B9B1887
:1016C0009A68A260DA79E27106229A56A2719B7931
:1016D0005BB2002B10DABD200002A0806B005B190A
:1016E0009B00264AD318294A1178997115704946EA
:1016F0003000FFF74BFFA4E7201D6B005B199B0038
:101700001E4A9B181A1D9B88D90A1C2907D15B0504
:101710005B15023359005118FFF7D8FEDDE71C4B6B
:101720001C4AA721184801F017F9002812D1002AF5
:101730000ED0FF239371184B9380144A1378A37132
:10174000164B0E49641A644163431B0D1370CEE7B8
:10175000094FF2E7201D1249FFF7DCFEC7E76021C1
:10176000104B084AFF31084801F0F6F8024F68E7CD
:10177000240100D000ED00E0CD010010F4020020B3
:10178000F07300108C7400108C720010B2080020EE
:10179000D8730010AC74001000BDFFFFAAAA0000AF
:1017A0002E0300201474001070B5040001260643B7
:1017B0002D4BF31A2F2B28D8FEF755FD00282BD0E0
:1017C000EFF3108C72B6294B1B68002BFBD0BFF3D4
:1017D0005F8F274D22002449521A524155432D0D47
:1017E0006DB2244B9B6880001B58B3421BD0002273
:1017F000032A32D853009B189B001B49CB189B79B6
:101800005BB2AB421FD00132F2E7C2211A4B1B4A36
:1018100049001B4801F0A0F888211A4B174AFF31F4
:10182000174801F099F8134B9B68174A1A50174B49
:101830001A78A2711D70BFF35F8F0C4B00221A60E3
:101840008CF3108870BD0800530099188900411866
:10185000FF268E710E4A8A80E9E7CC210D4B074A9C
:101860004900074801F078F8F4020020240100D074
:10187000AAAA000000ED00E01C74001058740010CB
:101880008C72001044740010CD010010B2080020CA
:1018900000BDFFFF507400100022044B02E0044919
:1018A00002C30132072AFAD97047C04600E400E0BB
:1018B00080808080024B9C466144890001607047B3
:1018C0004000003470B505000C00080000F00AFD6F
:1018D000200000F0EFFD0849200000F02FFDFFF789
:1018E000D3FD064B9C466044800068602C75A400C4
:1018F000034BE55070BDC046091C00104000003489
:101900007C0600200A4B1A68EFF3108172B6136848
:10191000002BFCD0BFF35F8F054B1B68BFF35F8FBD
:1019200000221A6081F3108840BF00200021704718
:101930009C08002010B5002922D003681B7B994227
:101940001ED8174B9C466144090183689C4661443C
:101950000C684968002A19D003681B7B9A4215D885
:1019600083680F488446624412019A1810685368CD
:10197000020001208B4201D80ED00020C0B210BD61
:10198000084B094A3B21094800F0E6FF054B064A8F
:101990003B21064800F0E0FFA242EFD8EDE7C04649
:1019A000FFFFFF0F24750010A8770010EC740010E3
:1019B00010B500291ED0037B99421BD84B005B1841
:1019C000033B0468A4466344002919D0002A1DD0B3
:1019D000914221D0002A25D0047BA24222D804685B
:1019E00050008018033820188170197800291FD101
:1019F0001A7010BD104B114A6821114800F0ACFF5D
:101A0000104B114A6F310E4800F0A6FF0F4B0E4AE3
:101A100070210B4800F0A0FF0D4B0B4A71210848C4
:101A200000F09AFF044B054A6821054800F094FF36
:101A300041701A70DDE7C046587500101478001028
:101A400074750010C0750010F0770010CC75001090
:101A5000D875001070B506000D001400002914D0D0
:101A6000002A14D0806873689847002806D02200A6
:101A700029003000FFF79CFF280007E02A00210022
:101A80003000FFF795FF200000E0100070BD080057
:101A9000FCE70000F0B583B00500009201930AABAB
:101AA0001C780BAB1F78002C26D003685A7B94421D
:101AB00007D10123002B19D1002C3BD1200003B00A
:101AC000F0BD002C0CD01A7B944209D81A68630030
:101AD0001B19033BD3189B78002BEBD00123E9E7BC
:101AE0003E4B3F4A68213F4800F036FF3E4B3F4A9D
:101AF00065213F4800F030FF03689C7B002CDBD061
:101B000012D01A7B94420FD862001219033A196856
:101B10008C46624451789973002900D1D97300230F
:101B2000937053701370C7E72C4B2D4A68212D48D2
:101B300000F012FF002C3AD02B681B7B9C4236D859
:101B40002C4BE3181B01AA6894466344009A1A6060
:101B5000019A5A60089A9A60099ADA602E68002CF5
:101B60002BD030D0337B9C422DD863001B19033B14
:101B700032689446634400229A705A701A70717BDE
:101B800022003000FFF766FF7073844200D095E7B3
:101B9000287D009A019B00F019FC061E01D0002F41
:101BA00017D00C9B002B00D188E71E7086E7124BE4
:101BB000124A3B210E4800F0CFFE114B114AA521DD
:101BC000084800F0C9FE054B054A6821054800F0A9
:101BD000C3FE2868210000F021FEE2E758750010DE
:101BE0001478001074750010F07500102078001043
:101BF000EC740010FFFFFF0F24750010A877001091
:101C0000E874001004780010F0B5DE4657464E46E2
:101C10004546E0B58BB00990002308938200B24B93
:101C2000D658370032E0B14BB14A3F21B14800F0FD
:101C300093FEB14BB14A3B21B14800F08DFEB14B50
:101C4000B14A8C21AE4800F087FEB04BAE4A9021DD
:101C5000AB4800F081FEA84BAD4A4021A84800F0F7
:101C60007BFE2A686B68099800F0B0FB00239A4657
:101C700098467B68BFF35F8F00221A6086F3108856
:101C80004346002B51D1002800D126E100F036FB5D
:101C900002000B1EC7DB0020002106900791786828
:101CA000EFF3108672B601680029FCD0BFF35F8F96
:101CB000396888464C7B002C32D0BAD0097B8C42E4
:101CC000B7D8944965182D01B9688C4665442868D1
:101CD0006968801A99410029C3DC01D10028C0D16C
:101CE0000021404600F090FDA042A8D12A686B6810
:101CF00006920793AB689846EB689A464346002BDA
:101D0000A3D0002CA7D03B681B7B9C42A3D8631EAA
:101D1000FA68D35C08931B02184338610020A8E7D7
:101D200000239A4698460020A3E7089B1B02234302
:101D3000994651461800C04705000E007A68EFF337
:101D4000108B72B6136859424B41D9B2002BF9D1AE
:101D5000BFF35F8F002E26DB002E52DD3B69002B88
:101D600053D04B4572D100F0C9FA02000B1E73DB51
:101D70000100180052197341984202D804D19142CF
:101D800002D901225242D317002B6BDB00210491B0
:101D9000013103910294514601914146009138006E
:101DA000FFF778FE49E03B69002BD5D04B451CD1AD
:101DB000069A079B10001900521BB341994202D8A2
:101DC00004D1904202D901225242D317002B12DBD8
:101DD0000021049101310391029451460191414641
:101DE00000913800FFF756FE27E04B4B464A9F21F3
:101DF000434800F0B1FD3D4B3D4A3F213D4800F0D6
:101E0000ABFD002E01D1002DA8D13A68002C45D0A1
:101E1000537B9C422CD1012100293FD1D37B002B45
:101E200042D1D473002C52D03B681B7B9C424ED8CD
:101E3000FA68013C135D0133135500233B617A6856
:101E4000BFF35F8F13608BF310881FE7324B2E4A6E
:101E5000A2212B4800F080FD244B254A3F21254834
:101E600000F07AFD214B224A3F21224800F074FD08
:101E7000002C0DD0137B9C420AD863001B19033B36
:101E80001068844663449B78002BC5D00121C3E7CA
:101E9000224B234A6821234800F05EFD224B234A4F
:101EA000F621204800F058FD002B0AD0117B8B4210
:101EB00007D85900CB18033B11688C4663445C700B
:101EC000AFE7164B164A6821164800F045FD0A4B4D
:101ED0000F4A40210A4800F03FFD0BB0F0BCBB4662
:101EE000B246A946A046F0BD7C0600201876001038
:101EF000747700103476001024750010A877001055
:101F0000EC7400107C7600108C7700109476001032
:101F1000CC770010FFFFFF0FA0760010587500105F
:101F20001478001074750010DC760010E077001053
:101F300010B50A4B5B68002B04D00A210848FFF754
:101F4000B9FC10BD054C2300064A1021206800F0A2
:101F50007BFB03212000FFF7B5FCEEE73C030020EC
:101F60009C0800203519001010B5064B5B68002B4B
:101F700001D0044810BD044B044A5C21044800F021
:101F8000EBFCC0463C03002000770010B477001043
:101F9000EC740010F0B5DE4657464E464546E0B5B7
:101FA0008BB0804616001F00149B9A46159B9946DD
:101FB00016AB1B789B461F2302AA9446634400225B
:101FC0001A7032E0002809D042461268127B904213
:101FD00004D8421E4146C9688A5C48E0434B444AE3
:101FE0004021444800F0B8FC0798002B75D05B46B0
:101FF000002B72D04946D04704000D0003000B436C
:1020000000D171E0002946DB00F078F906000F1ED0
:1020100055DB36196F41B94202D804D1B04202D91A
:1020200001267642F717002F4FDB43465A68EFF33D
:10203000108472B6136859424B41D9B20791002BF4
:10204000F8D1BFF35F8F1F3302AA94466344049311
:102050000023039302934B460193534600933200AF
:102060003B004046FFF716FD031EABD10200414680
:102070004968BFF35F8F00250D6084F31088002B43
:1020800029D01F2302A98C4663441B78002BABD1B7
:1020900012021043A9E732003B00361BAF41BB429E
:1020A00002D804D1B24202D901267642F717002F96
:1020B000BBDA114B114A3F21114800F04DFC0E4B89
:1020C0000E4A3F210E4800F047FC0B4B0B4A3F21C4
:1020D0000B4800F041FC012040420BB0F0BCBB4675
:1020E000B246A946A046F0BD0798F6E72475001051
:1020F000CC770010EC740010187600107477001084
:1021000034760010F0B587B006000F00FEF7ABF88C
:1021100000281FD106246442E517A4197D41BD4261
:1021200002D803D1B44201D900240025002D14DBCC
:102130000494059500F0E2F802000B1E13DBA41ACC
:102140009D41002D17DC14D03000390000F0E2F87A
:1021500007B0F0BD234800F099FC234B234A3F21F0
:10216000234800F0F9FB204B204A3F21204800F093
:10217000F3FB002CE8D0FFF7F7FE00230293019356
:102180001C4B0093049A059BFFF704FF002818DA04
:10219000DAE7002300E00023002BD5D1164B1A68A4
:1021A000EFF3108172B61368002BFCD0BFF35F8F82
:1021B000114B1B68BFF35F8F00221A6081F31088F8
:1021C00020BF0499059A0D4B5B6A9A42E3D80B48ED
:1021D000806A884203D29A42DBD00123DCE70123E4
:1021E000DAE7C046247700101876001074770010E4
:1021F00034760010051900109C08002000400540AE
:10220000F8B504000D0000F079F802000B1E10DB99
:1022100020002900801859418B4202D804D1824203
:1022200002D901204042C117002908DBFFF76AFFED
:10223000F8BD064B064A3F21064800F08DFB034BD4
:10224000034A3F21034800F087FBC0461876001080
:10225000747700103476001070B5EFF305833F20DB
:1022600018401038EFF3108C72B6194B1B68002B16
:10227000FBD0BFF35F8F012319008140154A5163E2
:10228000154A12781400C440234214D0114B5C6AE2
:102290008300124D5B599C4206D38300104C1B599E
:1022A0008A430D490A7007E00A4A031D9B009958AA
:1022B0009950002300E00023BFF35F8F044A002100
:1022C00011608CF31088002B00D0984770BDC04679
:1022D000280100D000400540B3080020A0080020DD
:1022E000D404002010B50100024A0348FFF798F813
:1022F00010BDC04638780010B1080020044B5B6A5E
:10230000034A906A1900536A9942F9D17047C0464E
:1023100000400540084B5B6A01E0074B5B6A8B425B
:10232000FBD301E0044B5B6A8B4203D1024B9B6AF7
:102330008342F7D37047C0460040054070B50400A3
:102340000D00EFF3108672B61B4B1B68002BFBD001
:10235000BFF35F8F002D1CD02000FFF71FF9174B34
:1023600083420BD019002000FFF720F90121200043
:10237000FFF70CF90123A340114A1360A400114B8D
:10238000E550BFF35F8F0C4B00221A6086F3108874
:1023900070BDA2000B4B0021D1500122A2400A497E
:1023A0000B7893430B7005492000FFF729F90021B2
:1023B0002000FFF7EBF8E4E7280100D059220010D5
:1023C00038600540D4040020B3080020F0B5DE4694
:1023D00000B584B00400150001921E000293FFF7BF
:1023E0008DFF03958E4202D84ED185424CD9EFF332
:1023F000108B72B6274B1B68002BFBD0BFF35F8F8F
:10240000254A17780125A540EBB23B431370234BB7
:102410005D63221D92000199D150A20020490298CB
:1024200050501B6A2B4212D11C4B1B6C2B4208D004
:102430000020BFF35F8F174B00221A608BF31088C8
:1024400023E0184B184AC121184800F085FAFFF71D
:1024500055FF8E4214D802D1039B834210D80E4BF5
:102460001B78BB420ED00D4B1D625D631F200440E4
:102470000123A3400E4A1360074B1F701E38D8E794
:102480000020D6E70120D4E7012004B080BCBB4681
:10249000F0BDC046280100D0B30800200040054030
:1024A000A00800205C780010C4780010807800102C
:1024B00080E200E0EFF3108C72B60B4B1B68002B30
:1024C000FBD0BFF35F8F01238340084A13620849A2
:1024D0000A789A430A70BFF35F8F034B00221A6099
:1024E0008CF310887047C046280100D0004005409A
:1024F000B308002010B500291ED0037B99421BD8D9
:102500004B005B18033B0468A4466344002919D0C0
:10251000002A1DD0914221D0002A25D0047BA2425E
:1025200022D8046850008018033820188170197868
:1025300000291FD11A7010BD104B114A6821114893
:1025400000F00AFA104B114A6F310E4800F004FAFD
:102550000F4B0E4A70210B4800F0FEF90D4B0B4A51
:102560007121084800F0F8F9044B054A6821054834
:1025700000F0F2F941701A70DDE7C046587500109E
:10258000CC79001074750010C0750010B879001077
:10259000CC750010D875001070B506000D00140041
:1025A000002914D0002A14D0806873689847002846
:1025B00006D0220029003000FFF79CFF280007E02A
:1025C0002A0021003000FFF795FF200000E01000F6
:1025D00070BD0800FCE7000010B500234373013311
:1025E0008373037BC3730123027B9A4214D9002BAC
:1025F0000CD0027B934209D85A00D218033A0168E2
:102600008C4662440133DBB25370EDE70B4B0C4A4E
:1026100068210C4800F0A0F9002A09D0924207D89E
:10262000016853009A18033A8A180023537010BDAA
:10263000024B034A6821034800F08EF958750010D8
:10264000CC7900107475001010B50173426083607E
:10265000FFF7C2FF10BD000070B50400081E00D1D6
:1026600070BD002934D0237B994231D84B005B18D0
:10267000033B2268944663445A78002AF0D02DD058
:10268000237B9A422AD853009B18033B21688C462F
:1026900063445D7800215970002825D0237B98423F
:1026A00022D843001B18033B21688C466344002159
:1026B000597001002000FFF76FFF0600290020007D
:1026C000FFF7CAFF020031002000FFF765FFC7E7F0
:1026D000084B094A6821094800F03EF9054B064AB3
:1026E0006821064800F038F9024B034A6821034884
:1026F00000F032F958750010CC7900107475001094
:1027000070B505000C001600002928D02DD0037BE1
:1027100099422AD84B005B18033B026894466344F5
:102720005A78002A27D19A78002A2AD11978FFF7F7
:1027300093FF0300002E03D0EA7B002A27D1EC731D
:10274000002B37D1002C49D02B7B9C4246D82B68DC
:1027500061000C19033C1C190023637070BD224BEF
:10276000224A3821224800F0F7F8224B224A6821F9
:10277000224800F0F1F8224B1C4A3A211C4800F094
:10278000EBF8204B194A3B21194800F0E5F8002AE4
:102790000AD0297B8A4207D851008A18033A29684F
:1027A0008C4662445470CAE7124B134A682113489E
:1027B00000F0D2F8002B0BD02A7B934208D84300BC
:1027C0001B18033B2A689446634400229A70B9E7B9
:1027D000084B094A6821094800F0BEF8054B064A33
:1027E0006821064800F0B8F8E0780010A4790010DD
:1027F000E878001058750010CC790010747500103E
:10280000207900104879001070B504000A00457B5B
:102810002900FFF775FF6073280070BD70B50400D4
:10282000002967D0437B8B420ED0002911D0037B57
:1028300099420ED84B005B18033B0268D01883788E
:10284000002B0CD1002056E00121FFF7DDFF012015
:1028500051E0294B294A6821294800F07DF8002BD6
:1028600020D0227B93421DD85A00D318033B226804
:10287000D2182568EB5C8B421AD0002B1BD0227B30
:10288000934218D85A00D318033B2268D2185378C1
:102890008B4216D0002BF0D11A4B1B4A67211B48E4
:1028A00000F05AF8144B154A6821154800F054F806
:1028B0004378137007E0104B104A6821104800F06D
:1028C0004BF843785370002383704370012220003B
:1028D000FFF716FF0200617B814205D02000FFF761
:1028E0005BFE6073012006E0094B074A6D21074833
:1028F00000F032F8002070BD58750010CC7900103F
:1029000074750010507400108C790010E878001075
:102910006C79001010B50400FEF7B6FD0100200030
:10292000FEF7C8FFFF232371BFF35F8F10BD10B503
:102930000400FEF7A9FD01002000FEF7BBFFFF2306
:10294000237100236371BFF35F8F10BD00BEFDE7ED
:1029500010B5FFF7FBFF000010B582B00C001900A6
:10296000002A0CD0084B002A0BD0019200932300C0
:102970000200064802F07AFB0120FFF7E7FF044B54
:10298000F1E7034AF1E7C046707A0010807A001040
:102990007C7A001070B52B4B2B4A1A602B4B2C4ABB
:1029A0001A602C4B9A682A4B9343FAD12A4C01E0C7
:1029B00008CC9847294B9C42FAD300F001F9234BED
:1029C000274A1A60234B9B68DB43DB01FAD1254B76
:1029D00040229A675A671A67DA66234C09E0234B4C
:1029E000234A83212348FFF7B7FF2000FFF792FF18
:1029F0000834214B9C4209D22368002BF5D0012BCF
:102A0000EDD12000FFF793FF0834F2E71B4CA168DB
:102A10001B4DC022280002F0FBF9A560FDF723FC46
:102A2000002800D000BEFEF71FFDFEF735FFFFF7C0
:102A30007FFA144C01E008CC9847134B9C42FAD320
:102A400070BDC04600E00040BFCDFBFE00F000407E
:102A5000FE7F3C0000C00040A0030020B003002027
:102A6000FFFFFF0100F0014098030020B07A001042
:102A7000287B0010D07A0010A003002000ED00E0B9
:102A800000000020B0030020B80300200FB400B500
:102A900083B0084802F0B8FA049B002B07D005A9C0
:102AA0000191180002F0C0FA034802F0ADFA0120CB
:102AB000FFF74CFF147B0010247B0010F8B5DE46B6
:102AC00057464E464546E0B505000F0092460A9A25
:102AD00093424ED31A0E91461E020A9A00233000EA
:102AE000494601F0EDFA80466C006419A4002F4BB2
:102AF0009C4664446368834200D260602B1FDBB253
:102B00009B46012B3BD9C0239B012343802212010A
:102B10001A60AB00264A9958002905D0506901F087
:102B20008DFA01300138FDD153465A0123685A40CD
:102B3000E0231A4080235B0123431A605A46012A8E
:102B400028D980239B012343802212011A60434627
:102B50006360424600233000494601F0B1FAAD00FF
:102B6000134B58510120F0BCBB46B246A946A046C3
:102B7000F8BD104B104A2D211048FFF7EDFE012F34
:102B8000C1D1C0239B01234303221A60A368DB0742
:102B9000FCD5C9E72168794003220A401A60A2687F
:102BA0000123BB401342FAD0CBE7C046008000406F
:102BB000E4050020387B0010907B00104C7B001057
:102BC00030B583B00C2000F021F9FEF743FC00285B
:102BD0000DD0002304E099002D4A2E48885001337F
:102BE000092BF8D92A4B2C4A5A6203B030BD2B4B23
:102BF00000229A6700F012F9294B01221A60274B34
:102C00005B6C012BFBD1274B03221A60234B9B6B80
:102C1000012BFBD1013300930433234A01212348C4
:102C200000F054F805230093214A0121214800F0C7
:102C30004DF8214B0093002202210420FFF73EFFB4
:102C40001E4D00952B00002201210520FFF736FFC5
:102C5000104C00942300002200210720FFF72EFFD4
:102C600000942300002200210820FFF727FF0A4BD1
:102C700000932300002200210920FFF71FFF009589
:102C80002B00002200210620FFF718FFADE7C04609
:102C9000E4050020006CDC021BB70000008000404F
:102CA0003CB0004030B00040002F68590080024026
:102CB000008C864700C00240001BB70040597307D4
:102CC0008000014BC0587047E4050020F0B5C646AF
:102CD00000B504000F0090461D000C2001F0AEF975
:102CE00006003D4A42443D4B9A4243D843011B1AD9
:102CF0009901C91AC90009188901404601F09EF9D5
:102D00000200103A98235B009A4239D86B1E062BBA
:102D10003CD8069B013B062B38D8069B9D423BD3F3
:102D200043461A09B2423DD32D04069B1E03354388
:102D30002368002B3CDB2A4B9C424AD08022520164
:102D4000284B1A60284B1A60284B9B681100994346
:102D5000FAD12760A060231DC02292011A432123CB
:102D600013602368002BFCDAE5600823136080BC45
:102D7000B846F0BD1E4B1F4A11211F48FFF7ECFD5E
:102D80001E4B1C4A19211C48FFF7E6FD1C4B194A33
:102D90001C211948FFF7E0FD1A4B164A222116485C
:102DA000FFF7DAFD184B134A25211348FFF7D4FD2E
:102DB00022683F231340BB42BDD1A3681B051B0DF6
:102DC0008342B8D1E368EE22D2021340AB42B2D1C3
:102DD000CDE780229201B3E780E84BD380F8A93297
:102DE00000C0024000E0004000F0004000C0004091
:102DF000A07B0010DC7C0010007C0010407C0010E8
:102E00005C7C0010A87C0010C07C001080239B001C
:102E10000343014AD362704700800540064BAA2253
:102E200012011A602F22DA60044B054A1A60024B25
:102E30005B68002BFBDA70470040024000600240F4
:102E400000B0FA00704710B5002802D00B6849683E
:102E5000984710BD0100002007E083001B185B00AD
:102E6000501C08601078C01830380A681378303B5E
:102E7000DBB2092BF1D97047F0B5DE4657464E4616
:102E80004546E0B583B093461F000C9B9A460D9CC7
:102E90000E9B99460F9B9B0703D0B8460F00060078
:102EA00022E00192A34688464E46B9460700B44246
:102EB00007D2551C4B4641462020B84701342A0012
:102EC000F5E73D004F465C46019B9B46B1464646B2
:102ED000B84637002E0007E0013C551C5346185DEC
:102EE00043463900B0472A00002CF5D135003E009A
:102EF00047460F9B9B0707D4100003B0F0BCBB46AE
:102F0000B246A946A046F0BDB0464E46B9462F008F
:102F10005D46531BB342EFD2541C4B464146202022
:102F2000B8472200F5E7F0B5CE46474680B585B0F4
:102F3000944698460C9D0D9C0EAB1B789946109AB2
:102F4000119B129EB7071CD4002B0CD0F7070AD593
:102F50004F46002F02D10C37374204D0013B02E02C
:102F600030272F550134944201D21F2CF8D9F7078E
:102F700007D59C4205D21F2C03D830272F5501348A
:102F8000F5E7F70615D5770505D4002C03D0944254
:102F900024D09C4222D00F9A102A2BD00F9A102AAC
:102FA00030D00F9A022A35D01F2C02D830222A5551
:102FB00001341F2C05D84A46002A31D02D222A552B
:102FC0000134039602930194009543466246FFF74D
:102FD00053FF05B0C0BCB946B046F0BD621E012C1F
:102FE00006D00F9F102F01D01400D4E7023CD2E787
:102FF0001400D0E7B206D1D41F2CCFD878222A559E
:103000000134D1E7B206CCD51F2CCAD858222A5594
:103010000134C9E71F2CC7D860322A550134C3E7F1
:10302000720703D52B222A550134CAE73207C8D5C7
:1030300020222A550134C4E7F0B5DE4657464E46F5
:103040004546E0B593B081468A46089209931CAB89
:1030500010CB1B789B461E9D219B9846002C03D1CC
:10306000102342469A4390468023DB0046461E408A
:1030700042461A4212D0002C22D000260EE03033F5
:10308000D9B2771C0AAB99552900200000F0D6FF71
:10309000AC4216D31F2F14D83E0004002900200094
:1030A00000F0CCFFCBB2092BE9D94246920605D5F8
:1030B0004121C918C9B20A39C9B2E2E76121F8E76A
:1030C000270043460693209B05931F9B049303957B
:1030D0005B46029301970AAB0093099B089A5146FD
:1030E0004846FFF720FF13B0F0BCBB46B246A946E6
:1030F000A046F0BDF0B5DE4657464E464546E0B523
:1031000095B0089009910A920B931E9E1F9C20ABCC
:103110001B789B46229B9946239D269B9A4633000B
:10312000234303D1103352469A4392468023DB0057
:1031300057461F4052461A4219D0330023432DD020
:10314000002714E03033DAB27B1C98460CABDA551A
:103150004A462B003000210000F0B2FFA5421FD8E4
:1031600019D043461F2B1BD8474606000C004A4681
:103170002B003000210000F0A3FFD3B2092BE1D9CE
:103180005246920605D54122D218D2B20A3AD2B29C
:10319000DAE76122F8E7B145E3D901E00023984678
:1031A00053460693259B0593249B04934B46039318
:1031B0005B460293434601930CAB00930B9B0A9A28
:1031C00009990898FFF7AFFE15B0F0BCBB46B246B0
:1031D000A946A046F0BD0000F0B5DE4657464E4673
:1031E0004546E0B591B083468A460C9298461A9CB3
:1031F00008941B9D099522002B002000290001F056
:10320000EEF9002800D0E5E001225242D74B200021
:10321000290001F0DFF9002800D0DBE00122524252
:10322000D34B2000290001F0BFF9002800D0D1E0E5
:1032300000220023089E3000099D290001F0B4F906
:10324000002800D0DDE008980999069007918023B6
:10325000DB001E9A1A400D921E9A1A4201D10623D3
:103260001C930698079904000D000A00060002430B
:1032700000D1D1E0080D4005400DBE4CA44660448D
:103280000A03120BBC4B13431F0001F0BBF9BB4AEE
:10329000BB4B01F046F9BB4ABB4B01F01BF90400E4
:1032A0000D000022B94B3000390001F00AF9B84A8C
:1032B000B84B01F036F902000B002000290001F0A4
:1032C00009F901F0B7F9814601F09CF904000D00FD
:1032D000B14AB24B01F025F90022B14B01F0FAF8E6
:1032E00001F0A8F90600AF4AAF4B2000290001F019
:1032F00018F904000D00300001F084F9AB4AAC4B22
:1033000001F00FF902000B002000290001F0D9F8AC
:1033100004000D0002000B0001F003F90A900B916C
:10332000A44BF31800261F0522002B0020002900C3
:1033300001F0D0F80E900F9122002B000020802188
:10334000C90501F0BEF804000D0000229A4B0A984E
:103350000B9901F0C8F80022984B01F0BBF802006D
:103360000B000A980B9901F0BEF80022944B01F073
:10337000B1F802000B000A980B9901F0B4F80200B2
:103380000B002000290001F0A5F802000B000E98A8
:103390000F9901F0A8F80022774B01F09BF832005A
:1033A0003B0001F0BEF806000F0004000D00069A75
:1033B000079B01F00FF9002830D001235B429C46A7
:1033C000E14400227D4B3000390001F08CF804000C
:1033D0000D0023E01E9B04931D9B03931C9B0293F3
:1033E000089A099B0092019343460C9A514658460D
:1033F00000F0FCF811B0F0BCBB46B246A946A046AE
:10340000F0BD0023002406930794069680231B0634
:103410009C46654407951AE7002399464B4663335B
:10342000C62B1ED804261E9B1B0526D52B00234326
:103430000FD0644A644B0698079901F0C3F800283E
:1034400079D00022614B0698079901F0ADF8002869
:1034500071D01C9B4B4506DD4A46981A431E1C93AF
:1034600003E00526DFE700231C938023DB001E9A80
:103470001A431E920026002399461D9B9E4264D249
:103480009F1B02231E9A1A400A921E9A134202D0D0
:10349000002E00D000274B46002B07D022002B0027
:1034A0000698079901F01FF8069007910022002363
:1034B0000898099901F078F8002848D1444B1E9AE1
:1034C0001340049303971C9B0293069B079C009355
:1034D000019443460C9A5146584600F087F8002E56
:1034E00000D187E71E9B9B063DD54525441C4346DE
:1034F000020051462800D8474B46DA179B18534024
:1035000005220592013E0496002203920A3202929D
:103510004A46D00F01900093434622005146584638
:10352000FFF78AFD0A9B002B00D163E702005F468C
:103530000C9E1D9D54E01C9B002B9ED00D9B002BD0
:103540009BD01C9B013B1C9397E7002799E7069CA7
:10355000079D2200290080200006844661440B005C
:1035600006920793AAE76525C0E7C046FFFFEF7FF5
:10357000FFFFEFFF01FCFFFF0000F03FFB799F50D2
:103580001344D33FB3C8608B288AC63F0000F83F7E
:1035900061436F63A787D23F71A379094F930A40B4
:1035A0000000E03F1655B5BBB16B0240EF39FAFEA3
:1035B000422EE63FFF03000000002C4000002440A4
:1035C000000018402D431CEBE2361A3F80842E4148
:1035D000FFF7FFFF541C434651462020B847220006
:1035E000931BAB42F6D3100004E7C046F0B5DE46AD
:1035F00057464E464546E0B595B00690079193462E
:103600009946209F1E9A1F9B1000190000F0E7FFAB
:10361000002831D101225242BF4B1E981F9900F061
:10362000C3FF002837D101225242BC4B1E981F997C
:1036300000F0D0FF00283DD10022B94B1E981F9901
:1036400000F0C8FF002850D10022B64B1E981F99E9
:1036500000F0AAFF002848D1002200231E981F99DD
:1036600000F0A2FF002850D100239846229B5B0562
:1036700000D4B6E0002458E0229B0393219B0293E0
:1036800003230193A84B00934B465A46079906988B
:10369000FFF7F2FB0EE1229B0393219B029304238D
:1036A0000193A24B00934B465A4607990698FFF7A1
:1036B000E3FBFFE00423229A1A4022990B4210D028
:1036C0009B4B002A0FD00422229903912199029149
:1036D000019200934B465A4607990698FFF7CCFB98
:1036E000E8E0944BEDE70322EEE7229B0493219B55
:1036F000039302971E9B1F9C009301944B465A46CE
:1037000007990698FFF768FDD4E01E9A1F9B0020DA
:10371000002100F0D6FE1E901F9101239846A5E7D8
:103720000CAB30221A55013F01341F2C01D8092F50
:10373000F6D81E981F9900F07DFF050000F062FF8B
:1037400002000B001E981F9900F0BBFEFA007A4B96
:103750009B181A685B680A920B9300F0E2FE0890CF
:10376000099100F08BFF060000F048FF02000B00FB
:103770000898099900F0A5FE0890099100226F4B66
:1037800000F028FF00282ED00136300000F036FF70
:1037900002000B000A980B9900F00CFF002801D0E2
:1037A00001350026002F2CD1280000F02BFF02004D
:1037B0000B001E981F9900F084FE06000F000022E7
:1037C0005E4B00F0F1FE002846D100225B4B30003A
:1037D000390000F0FFFE00283ED1EB073CD5013553
:1037E0003AE0062746E70022544B0898099900F072
:1037F000DBFE0028D6D1002E01D0F307D2D501364A
:10380000D0E7AA461F2C11D8013F0A21300000F052
:1038100015FC651C30310CAB19550A21300000F045
:103820000DFC092E0ED906002C00EBE755461F2C87
:103830000CD87B1E002F09D00CAA302111551F0077
:103840000134F4E72B0055461C00F0E71F2C03D889
:103850000CAB2E221A5501341F2C10D80A21280037
:1038600000F0C4FB661C30310CAB19550A2128004E
:1038700000F0BCFB051E01D03400EDE7340003234B
:10388000229A1340012B1CD01F2C06D84346002B34
:1038900032D00CAB2D221A550134229B0393219B6D
:1038A000029301940CAB00934B465A460799069835
:1038B000FFF7E2FA15B0F0BCBB46B246A946A046F7
:1038C000F0BD219B002B13D04346002B02D10C33BB
:1038D00013420FD0219B013B2193190003E00CAB55
:1038E00030221A5501348C42CED21F2CF7D9CBE7A7
:1038F0002199F8E72199F6E7229B5B0704D50CABE9
:103900002B221A550134C8E7229B1B07C5D50CABE7
:1039100020221A550134C0E7FFFFEFFFFFFFEF7FC2
:1039200065CDCD4165CDCDC1F47C0010F87C001093
:10393000EC7C0010E87C0010E07E00100000E03F0E
:10394000F0B5DE4657464E464546E0B593B0824652
:103950008B4690461193002900D1EBE20027554693
:10396000119B1878002800D1E7E2252809D07C1C9B
:1039700043463A005946A847119B0133119327004B
:10398000EEE7013311930024119A11780B00203BCC
:10399000D8B2102803D88300D048C3589F460B00E4
:1039A000303BDBB2092B2CD92A292FD000230A93D4
:1039B000119B1A782E2A39D000239A46119A13782F
:1039C000683BD9B2122976D88B00C549CB589F469F
:1039D00001231C4301321192D6E702231C4301321A
:1039E0001192D1E704231C4301321192CCE7082342
:1039F0001C4301321192C7E710231C43013211927C
:103A0000C2E711A8FFF726FA0A90D1E71C9B1A1DFE
:103A10001C921868002804DB0A90119B0133119353
:103A2000C6E702231C4343420A93F6E78022D200F2
:103A300014435A1C11925A781300303BDBB2092B05
:103A400004D92A2A07D000239A46B7E711A8FFF71E
:103A500001FA8246B2E71C9B1A1D1C9218680028C6
:103A600004DB8246119B01331193A7E70020F8E79E
:103A700080235B002343511C119152786C2A01D0A2
:103A80001C0018E0C0239B001C430131119112E07F
:103A900080232343511C11915278682A01D01C00C5
:103AA00009E0C0231C430131119104E080235B0035
:103AB0001C4301321192119B18780300253BDAB2A6
:103AC000532A00D92CE29300864AD3589F4680237C
:103AD0009B001C4301321192EDE780235B001C43E5
:103AE00001321192E7E7782809D0582838D06F289A
:103AF00038D0622838D010239C430A2600E01026D4
:103B0000582833D0692803D0642801D00C2294436C
:103B1000630501D50122944369282AD0642828D05E
:103B2000A30500D59FE0E30500D5B8E0630600D407
:103B3000CAE01C9A111D1C911168FF220A400594CD
:103B40000A9B049353460393029600230193009229
:103B500043463A0059462800FFF76EFA070027E06F
:103B60001026CDE70826CBE70226C9E7202214431A
:103B7000C8E7A30520D4E30550D4630666D51C9A94
:103B8000111D1C911168FF220A40D317D11859400A
:103B900005940A9B0493534603930296D20F019215
:103BA000009143463A0059462800FFF745FA0700BE
:103BB000119B01331193D3E61C9BDA1D07218A4325
:103BC000110008311C91116853689C46DB170C9357
:103BD0000D930C9A0D9B100048400E906246534086
:103BE0000F930E980F990C9A0D9B801A99410E9085
:103BF0000F9108940A9B079353460693049600235B
:103C000005936346DA0F02920090019143463A0011
:103C100059462800FFF76EFA0700C9E71C9A111DE4
:103C20001C911268D317D118594005940A9B04932C
:103C3000534603930296D20F0192009143463A00F5
:103C400059462800FFF7F8F90700B1E7230605D524
:103C50001C9A111D1C910023D25E96E71C9A111D1F
:103C60001C91126891E71C9BDA1D07218A43110001
:103C700008311C9108940A9B0793534606930496B7
:103C800000230593029313685468009301944346FC
:103C90003A0059462800FFF72DFA070088E71C9ADA
:103CA000111D1C9105940A9B04935346039302969D
:103CB000002301931368009343463A0059462800B5
:103CC000FFF7BAF9070073E723060DD51C9A111DFB
:103CD0001C9112681204120C31E7C046007D0010DE
:103CE000447D0010907D00101C9A111D1C911268DB
:103CF00025E746281AD01C9B0733072293431A0056
:103D000008321C9204940A9A0392524602925C680A
:103D10001B680093019443463A0059462800FFF778
:103D200065FC0700119B0133119319E620231C4306
:103D3000E1E7672801D0472802D180231B011C43FB
:103D4000452801D0472801D120231C431C9B073361
:103D5000072293431A0008321C9204940A9A039291
:103D6000524602925C681B680093019443463A00F5
:103D700059462800FFF730FA0700119B01331193D1
:103D8000EEE502231A002240924623421FD001246E
:103D90001C9B1A1D1C927A1C9146187843463A00C7
:103DA0005946A8475346002B16D1119B0133119356
:103DB0004F46D5E5561C434659462020B8472300B8
:103DC00032005C1C9D42F5D83D001700E0E701235E
:103DD0003A002F000A9DF4E74A46A9460A9D06E0EC
:103DE000571C434659462020C84734003A00661CF9
:103DF000A542F5D84D469146D7E71C9B1A1D1C924B
:103E00001B6899465346002B00D1013B4E4601E00A
:103E1000013613003278002A02D05A1E002BF7D147
:103E20004B46F21A10928023DB0026001E401C42F3
:103E300003D0524501D95346109302231A00224061
:103E40000B92234205D03A0037004C46A94655460E
:103E500020E03A00109B5F46B3462E0006E0551C5A
:103E6000434639002020B04723002A005C1C0A99F1
:103E70009942F4D835005E46BB46109437004C4654
:103E8000A946554606E01D000134561C43465946D6
:103E9000C84732002078002804D0002FF4D06B1ED1
:103EA000002DF0D117004D460B9B002B03D1119B29
:103EB0000133119354E50A9F109B06E0561C4346BC
:103EC00059462020A847230032005C1C9F42F5D8A9
:103ED0001700ECE721231C431C9B1A1D1C921B6836
:103EE00000930594082304935346039310230293ED
:103EF0000023019343463A0059462800FFF79CF8F7
:103F00000700119B013311932AE57C1C43463A00BC
:103F100059462520A847119B0133119327001FE51F
:103F20007C1C43463A005946A847119B0133119324
:103F3000270015E50A4B9A4610E5AA46474502D3E5
:103F400043465A1E00E03A00434659460020D047F7
:103F5000380013B0F0BCBB46B246A946A046F0BD3F
:103F6000452E001000B585B0029003910121009309
:103F700013004A4202A90248FFF7E2FC05B000BD67
:103F8000472E001001480421014B18477003002000
:103F9000B53F001010B5010018231B8814221088AB
:103FA000984710BD10B5010018231B8816221088F1
:103FB000984710BDF0B5C64600B507000E000025B5
:103FC0000123984600E00135B5420AD2AC003C1905
:103FD0002068FFF7DFFF20600028F4D10023984617
:103FE000F1E7404680BCB846F0BD0000124A936F2E
:103FF0009B0815D29066D166002905D0FFE7FFE740
:10400000FFE7516F106F704704B580210906C21792
:104010005140002800D0C84301F076FA002104BDC9
:10402000F0B5146E556E576F166FFFF7E3FF146609
:10403000556657671667F0BD000000D0114A936FB0
:104040009B0813D210665166002905D0FFE7FFE7F1
:10405000FFE7516F106F704704B5002801D00020B2
:10406000C04301F051FA002104BDC046F0B5146E02
:10407000556E576F166FFFF7E5FF14665566576765
:104080001667F0BD000000D094464E4A926F920829
:10409000624601D230E0C046F0B54A4EB56F6D08B9
:1040A000FCD3346E756E776F366F00F025F894464A
:1040B000444A14665566576716676246F0BDC046A7
:1040C0009446404A926F9208624601D258E0C04638
:1040D000F0B53C4EB56F6D08FCD3346E756E776FDE
:1040E000366F00F04DF89446364A146655665767A9
:1040F00016676246F0BDC046002B24DB11D00029B4
:104100003EDA00B5C943404200D1013100F038F831
:10411000C943404200D10131DB43524200D1013357
:1041200000BD002AEBD1002801D1002905D00020D4
:10413000C90FC90701D1C043410800B501F0DCF93E
:104140000022002300BD00B500290ADBDB435242F8
:1041500000D1013300F014F8C943404200D10131CD
:1041600000BDC943404200D10131DB43524200D17E
:10417000013300F005F8DB43524200D1013300BDAA
:10418000002923D1002B18D1002A0CD0BC460D4F9A
:1041900038667A6600210023FFE7FFE7FFE77A6FC2
:1041A000386F67467047002801D00748010000B506
:1041B00001F0A2F90022002300BD02000B00002044
:1041C00000217047000000D0FFFFFFFF002B00D050
:1041D000BFE0130C28D1002AE7D080B4114F396614
:1041E0007A66FFE7FFE730B4040C7B6F396F1B047E
:1041F00023433B667A66FFE7FFE7FFE7C04684B2EA
:104200007B6F3D6F1B0423433B667A66FFE7FFE746
:10421000C04600232C042D0C7A6F386F00196941B9
:10422000B0BC7047000000D0F0B594460025140ED5
:1042300001D112020835140F01D112010435940F77
:1042400001D192000235D40F01D152000135D40BB7
:104250000134254F7C66254C3C660E0C93B2FFE77B
:10426000FFE7FFE73C6F6643360C7703BE467343B8
:10427000DF0B5B04C01AB941130C7343DB18C91A76
:10428000CE086643360CB64493B273431F0F1B012E
:10429000C01AB941130C73431F0B1B05C01AB94157
:1042A000860D8F023E436643360C092D24DB520AED
:1042B0007243801A7703460A6643360C16235B1B4B
:1042C000DE40DF40BF1964466643821B70460435FA
:1042D00006330100D940A840C01900D30131A242E1
:1042E00006D20023F0BD0000000000D0FFFFFFFF5A
:1042F000121B0130F3D3F1E709277F1BFE40644610
:10430000A2B27243801A00D20139220C7243130CFC
:104310001204821A99410B007046043513370100CC
:10432000F940A840801900D30131002B02D1A242EC
:104330000AD2F0BD013000D30131121BFAD2013B89
:10434000F8D1A24200D2F0BD013000D30131121BDE
:10435000F7E7F0B51C0C00D080E00CB400251C0A77
:1043600004D11B02160E3343120208351C0B04D174
:104370001B01160F3343120104359C0B04D19B0023
:10438000960F334392000235DC0B02D192185B4149
:1043900001351C00971864410134464F7C66464C39
:1043A0003C660E0CFFE7FFE7FFE7C0463C6F664345
:1043B000360C7703BE4697B27743C01B00D2013953
:1043C000C01B00D201399FB27743C91BC91B170C10
:1043D00077437E04FF0B801BB941CE086643360C41
:1043E0000C2D33DBB644120B1F053A431B0B97B25F
:1043F0007743C01B00D201399FB27743C91B170C0A
:1044000077433E043F0C801BB941860D8F023E432B
:10441000664329277F1BFE400C3D7746AF40BF19FE
:1044200030BCA2B2ABB272437343801A9941220CE2
:104430007243130C1204801A994102000B000137D9
:10444000001BA941F9D2781E0021F0BD0C277F1B6B
:10445000FE4077467F0BAF40FF19E0E700245D1C6C
:1044600007D0144F7D663966FFE7FFE7FFE7FFE7F8
:104470003C6F95B29EB265436643401BB141150C3B
:104480001E0C6543664336042F0C3E432D04401B2F
:10449000B141994204D202000B0020000021F0BD7E
:1044A00001D19042F7D3801A994101349942F2D355
:1044B000F6E70000000000D0FFFFFFFF484041404A
:1044C000484018B41B4B5B68FC46019308BD04DFF1
:1044D0009747001018B4174B1B68FC46019308BDA2
:1044E00000DFA14700109446134A926F920809D248
:1044F000624618B40F4BDB68FC46019308BD0CDF25
:10450000594A00100C4AF0B5146E556E576F166F6D
:104510006246FFF7EEFF084A14665566576716674E
:10452000F0BD18B4034B9B68FC46019308BD08DF3F
:10453000FD48001098060020000000D0FFB5504054
:104540004240504059404B40594000E0FFB5154FA4
:104550004C00640D03D0BC4204D10C0314D80020DD
:10456000090D09055C00640D03D0BC4204D11C0395
:104570000AD800221B0D1B0501264B4009D44B40D5
:1045800003D58B4200D18242FFBD9942FCD19042BB
:10459000FFBD0B43DB1803431343F5D0C943491850
:1045A000FFBD0000FF07000000B5FFF7CFFF80410F
:1045B00000BDC04600B5FFF7C9FF01D9002000BD0E
:1045C000012000BD00B5FFF7B9FF01D9002000BDF3
:1045D000012000BD00B5FFF7B1FF804100BD012003
:1045E00040054A00121804D85A00121801D80020B9
:1045F000704701207047002070470000002100280C
:1046000005D17047C1174840401AFAD0C90713B501
:10461000064B1B6898470CBC441CA2401005120BAB
:104620000349091B09051943114310BD98070020D0
:104630001F04000010B54C00620D8023D218DB006F
:10464000D21A5B057E2A10DD9E3A13DACC170903D5
:10465000490819435242D140640001341532202ADE
:1046600005DAD0400843604310BD002010BD084665
:10467000604310BDC80FC018013810BD18B4044BFA
:104680005B6AFC46019308BD24DF094C0010000062
:104690009806002070B513231C78012C14D0012C2F
:1046A00014DC022C02DC1F4A1F4B9A641F48FFF7E0
:1046B00071FC1F4B186070BD99001A481A4A885047
:1046C00001331F2BF8D9EAE70023FAE71948FFF76F
:1046D00069FC05001848FFF765FC023803789B0069
:1046E0007F2B19DD802229000F4800F091FB022C5E
:1046F000D7D1124B1A88B5231B029A4209D1104B0D
:104700001A88104B9A4204D10F4B1A880F4B9A42C9
:10471000C7D00020FEF7BAF90D4B0E4A32210E48E1
:10472000FEF71AF95D470010980600204C33000090
:1047300098070020534400005346000054380000FE
:10474000D8380000494600009C3800005946000057
:10475000307F0010D87F0010907F001007B56046B2
:10476000002800D100BE01880A0A0230DF2AFAD1EF
:10477000C9B2820804D3028840880004104300E0D4
:104780000068024A5050039007BD000098060020C0
:104790000FB403BC0CBCF0B50124E407634000E097
:1047A000F0B50C0DCF0F661E3605891B640503D3CB
:1047B000C943404200D30131640D03D0661CF60AA0
:1047C00007D0E41B00207F00791C89078912803CF8
:1047D00024031D0DDF0F6E1E36059B1B6D0503D3D5
:1047E000DB43524200D301336D0D03D06E1CF60A39
:1047F00007D0ED1B00227F007B1C9B079B12803D96
:104800002D032F1B661B58D4A446202E46DA2037D2
:104810001400BC401D00BD40F24033412A438018C3
:104820005941CB0F05D0C943C043002264425041D7
:10483000514162464D0D28D10D0D07D100281FD0E2
:10484000241940414941013A0D0DF9D0640006D3C5
:10485000013000D30131002C01D140084000013A61
:104860000BD4941CE40A04D112051144DB0719444B
:10487000F0BDD907204B194300E0D9070020F0BD57
:104880000029DDD1002CDBD1F0BD0132C607400884
:10489000CD0728434908002EE1D0D9E73C2E29DA7C
:1048A000203E40371400BC4000D00124F2401443A5
:1048B0001A00BB401C43D317ACE7AC46202F08DAE4
:1048C00020360400B4400D00B540F840394128437B
:1048D000A5E73C2F0CDA203F40360400B44000D05E
:1048E0000124F84004430800B1400C43C117EAE733
:1048F00010001900002494E70000F07FF0B50C0DC3
:10490000661E3605891BE60A6405640D02D0651C27
:10491000ED0A04D0002001210905803C2403A446AF
:104920001C0D671E3F05DB1BE70A6405640D02D002
:10493000651CED0A04D0002201231B05803C2403E2
:104940007740644497B484B296B27443070C7E43B4
:10495000150C6F4380B26843361802D3012000045F
:104960003F183004350C00197D41844688B29AB254
:1049700050430C0C62431F0C7C438EB27E43921951
:1049800002D301263604A4191604170C3618674101
:1049900001BC81B29AB25143040C62431B0C5C43CC
:1049A00080B25843121802D30120000424181004C6
:1049B000130C401863412D185E410020474106BC8E
:1049C00088B293B258430C0C6343120C544389B21F
:1049D00051435B1802D301210904641819041A0C0D
:1049E000091862416D1856410020474118BCF90270
:1049F000720D1143F0026A0D1043ED020A0D03D14E
:104A00006D1940414941013B124E9B1B7600B34258
:104A10000ED26D0007D30130002671416646354342
:104A200001D1400840001B05C918E4072144F0BD2E
:104A30000BDA013306D1013004D101314F0D01D021
:104A40004908F2E7E1070020F0BD013631050020FA
:104A5000EBE70000FF030000F0B51C0D671E3F05EB
:104A6000DB1BE70A6405640D02D0661CF60A04D05D
:104A7000002201231B05803C2403D0252D0600269F
:104A8000F6432E661E096E66CE0FF619B44649002F
:104A90004F0D02D07E1CF60A03D000200021403FBB
:104AA0003F033E1BB600B444013F7F05C91B4908C4
:104AB0002E6F013676089C02950D25437543ED1344
:104AC0007543AD1301356D10F603761B0CB4CC02A3
:104AD000450D2C43A2B2B3B25A43270C7B43350C8D
:104AE0006F43A4B26C431B1902D3012424043F1961
:104AF0001C041D0CA4187D4124196D41009A91B22B
:104B0000ACB26143170C7C432B0C5F4392B25A4307
:104B1000A41802D301221204BF182204230C521835
:104B20007B41019C6C431B19520ED9010A4344017D
:104B3000A01A81B2B2B2514303145A43360C7343E4
:104B400087B27743D617D21900277E4136049B19C6
:104B50001704160C7F185E417316ED18F30100263A
:104B600080337541A90F06D16400690AE8055B0A24
:104B7000184309D22FE00422944480337541A90AD6
:104B8000A8059B0A184326D3404149412404009AB2
:104B9000019B0D005543641B4343E41A95B286B252
:104BA0007543170C7E43030C5F4392B25A43B61809
:104BB00002D301221204BF183204330C52197B4174
:104BC00052429C41002C02D4002201305141400845
:104BD000CA071043490802B06246D7079210084B33
:104BE000D218084B9A4203D212058918C919F0BD90
:104BF0000020002A01DC3900F0BD01331905F5E77A
:104C0000FD030000FE070000002200B5203200F086
:104C100004F8080000BD000000220B150AD410B5EE
:104C2000944600F031F81414013400DA0021CB1757
:104C3000144C20470020002170476244343A0CD4C1
:104C40000C2A07DA04009140904052422032D440AE
:104C5000214310BDD843D94310BD203207D40C46A0
:104C60009440524220321141D040204310BD0800F0
:104C7000C917203203D452422032104110BD18000F
:104C8000190010BD3B4C00100A0DCC0F531E1B0524
:104C9000C91A520503D3C943404200D30131520D12
:104CA00003D0531CDB0A07D0121B00206400611CD8
:104CB00089078912803A1203014BD21A704700000B
:104CC000FF03000070B513231D782A48FFF76AF927
:104CD0000400012D11D0012D09DDA31E1B789B00BE
:104CE0007F2B40DD80222100234800F091F82348EB
:104CF000FFF750F9224B186070BD542201001E4886
:104D000000F086F81F4B1A881F4B9A421CD1A7232C
:104D10009B011A881D4B9A4216D11D4B1A881D4BB8
:104D20009A4211D11C4B1A8894239B019A420BD1B1
:104D30001A4B1A881A4B9A4206D11A4B1A681A4B08
:104D40009A4201D1152307E01848FDF79FFE99000C
:104D50001748094A885001331F2BF8D9144A064BCB
:104D60001A62DA61B7E7134B134A42211348FDF781
:104D7000F3FDC046534600009C0700204C33000062
:104D800098070020EE290000C40F0000C20D0000AB
:104D9000962B0000C0B50000182B0000CC2A0000A4
:104DA00010B50000FC2C000051ED87647C7A0010E7
:104DB000C14D0010EC7F00106880001020800010B2
:104DC00007B56046002800D100BE01880A0A0230FB
:104DD000DF2AFAD1C9B2820804D3028840880004CD
:104DE000104300E00068024A5050039007BD0000E5
:104DF0009C07002001480421014B18478003002034
:104E0000B53F0010014B1B681847000080030020CD
:104E1000014B5B68184700008003002010B50300B9
:104E2000080011001B68984710BD0000F8B5070086
:104E30000D001600437C002B02D0002400200CE063
:104E400003681100280098472DE03B7C10E0022108
:104E500015483B689847601C0134B44214DA002CB2
:104E6000F3DD2B19013B1B780D3B5A425341DBB25A
:104E70002A5D0A2AF0D1002BEED1A042E7DA211AEE
:104E800028183B689847E2E7B04203DA311A28183D
:104E90003B689847002E06DDAD19013D2B780D3B90
:104EA0005A4253413B74F8BDE480001070B50500D0
:104EB0000368002B16D00C4B1C6805E0290004C9C0
:104EC0002000FFF7B3FFE468002C09D02368002B13
:104ED000F9D0064B1B68002BF0D0A342F3D1EDE7CD
:104EE00000232B6070BDC0464C06002050060020F9
:104EF00070B505000C000B68802B05D021684B1C99
:104F000023606418257170BD0800FFF7CFFFF5E737
:104F100010B582B0D0231B0600241C5701A90748F6
:104F200000F0FAFA002806D1019B9C4203D0034806
:104F300000F0FAFA012002B010BDC046980300202C
:104F400010B5024800F0D0FA10BDC046980300200A
:104F5000F0B5CE46474680B583B006000D009046BA
:104F60001C00FFF7D5FF81466B1C05D0002C08D034
:104F7000194F1A4B1C6807E0300000F07DFA05005D
:104F8000F4E7174FF5E7E468002C17D02368002BEF
:104F9000F9D0144B1B68002B01D0A342F3D12A0097
:104FA00031002000B8474346002BECD06B46D91D9A
:104FB0000A230B7001222000B847E4E74B46002B80
:104FC00007D16B1E9D41E8B203B0C0BCB946B046E4
:104FD000F0BDFFF7B5FFF4E71D4E00104C060020B2
:104FE0002D4E00105006002010B5064B1C6801E045
:104FF0009847E468002C03D06368002BF8D1F8E7E9
:1050000010BDC0464C06002070B5050000F034FA13
:1050100004000023012201002800FFF799FFFFF799
:10502000E3FF200070BD000070B5A2B004000E00C8
:10503000FFF76EFF05008422002101A8FFF7E2FEC2
:105040003300220001A90848FEF78CFF040001A8E4
:10505000FFF72CFFFFF7C8FF002D02D1200022B080
:1050600070BDFFF76DFFF9E7F14E00100FB400B50A
:1050700083B004A901C90191FFF7D6FF03B008BCB2
:1050800004B0184710B5024800F004F810BDC0463F
:105090009006002070B588B0040004AD0026049688
:1050A0000922002105A8FFF7ADFE00960922002184
:1050B00001A8FFF7A7FE4B232B700D22694628009D
:1050C00000F00AFA002304E05A1D69468A5CE254A3
:1050D0000133072BF8DD08B070BDF0B5DE4657464A
:1050E0004E464546E0B585B0060010001C00029310
:1050F0000EAB1A7803920F9D109F33680022DA6678
:105100003368596033680132DA66A2460023984654
:105110009B4600242BE03279002A31D001222FE077
:105120000399002901D000212EE001212CE0380054
:10513000A84703000443E4B2002B06D13268526B47
:10514000D20602D4002DF2D1F6E7002B09D1326845
:10515000802151588B4600291FD1002C2FD1C145E9
:105160001ED0002C33D101229446E0440198D04552
:105170002DDA029A013A91464246002ACBD000220B
:105180009202C145CCD0002149020A43411C019141
:105190000078316802430A61D4E7526D01240EE0C1
:1051A000039A002ADDD10AE03800A847030004432F
:1051B000E4B2002B06D13268526B920502D4002D66
:1051C000F2D1F6E7002BCCD13268126EC9E7002C81
:1051D00009D0002B15D15B46002B16D0DB0718D465
:1051E0005B461B0709D5039B3371404605B0F0BCF5
:1051F000BB46B246A946A046F0BD02235B42984694
:10520000F1E701235B429846EDE702235B429846B3
:10521000E9E702235B429846E5E7F0B5DE465746EC
:105220004E464546E0B583B0050091469A460CAB24
:105230001B7801930D9E0E9F03680022DA660368B7
:10524000596003680132DA66D34600239846002489
:105250002AE02979002933D0012131E00198002882
:1052600001D0002030E001202EE03800B0470300DC
:105270000443E4B2002C0DD12A68926F002A09D1B0
:105280002A6880215158546D621E9441E4B2002E68
:10529000EBD1EFE7002C1ED12A68126949460A704B
:1052A00001229446E044E144D84514DA5246541EA3
:1052B0002A68516F1029FBD041460029C9D000212E
:1052C00089024445CAD00020400208438021490099
:1052D00001431161D4E7002C04D0002B0CD0012332
:1052E0005B429846019B2B71404603B0F0BCBB4625
:1052F000B246A946A046F0BD02235B429846F1E7BC
:10530000F0B5D6464F464646C0B505000C00052010
:10531000FDF7D6FC0600600880192100FEF78EFE1E
:10532000070043009946814405214846FEF786FE62
:1053300080463B1A9A46284B9C4224D8700080191C
:105340002649FEF77BFE441C4346023BA34221D381
:105350002B680022DA6629680A6804235340062273
:105360001A4080235B010B431A602B685246DA61B6
:105370002B6842461A624B464F2B11D950214846A2
:10538000FEF75CFE0DE0700080191549FEF756FE31
:10539000441CD9E7134B144A5F211448FDF7DCFA8B
:1053A0000120A0232A68D0502A6811007C31D06FD8
:1053B00044402404240C80235B010B431C602B68B5
:1053C0000122DA6639003000FEF738FEE0BCBA464A
:1053D000B146A846F0BDC0463F420F0080969800F7
:1053E00040787D0154820010B48200107482001055
:1053F00010B5114B98421CD01022104B1A60104B64
:105400001A60104B9B6814009C43231EF9D1047151
:105410000268D46602686624FF3414600268D363AD
:1054200002689363883303220468E250FFF768FF41
:1054300010BD0822E1E7C0469003002000E00040D4
:1054400000F0004000C0004030B585B008AC2578C1
:105450000024029401940095FFF73FFE05B030BD93
:1054600030B585B008AC25780024029401940095ED
:10547000FFF7D3FE05B030BD10B583070AD0030097
:10548000032102E001330B4205D01A78002AF9D13A
:10549000181A10BD030019680C4A0D4C8A188A436B
:1054A00022420FD15968094A04338A188A4322429A
:1054B00008D15968054A04338A188A432242F1D038
:1054C00000E001331A78002AFBD1E1E7FFFEFEFE7F
:1054D00080808080F8B5C04601B40248844601BC93
:1054E000604700BF0502002001B40248844601BCA9
:1054F000604700BF5101002001B40248844601BC4E
:10550000604700BFDD02002001B40248844601BCB0
:10551000604700BFDD02002001B40248844601BCA0
:10552000604700BF0901002001B40248844601BC65
:08553000604700BFC10000202C
:1055380020204C6F772D436F737400002054656CE6
:10554800656D6174696373002020646576696365BD
:105558000000000020646576656C6F7065642061EA
:105568007400000049495420426F6D62617900005F
:1055780000AEDC008140A1C8A87FD550D922DB3518
:10558800B0DA12A4A6AF000000AED580A81FD300E1
:10559800408D14A1C8DA02817FD9F1DB40A4A6AFFF
:1055A80000AEA83FD30040A1C8DA1281FFA4A6D557
:1055B800808D14AF2002000000AEA83FD30040A1A8
:1055C800C8DA1281FFAD30D9F1A4A6D5808D14AF09
:1055D80020020000000000000000000000000000A1
:1055E80000000000000000000000000000000000B3
:1055F80000000000000000000000000000000000A3
:105608000000000000000000000000000000000092
:105618000000000000000000FCFCFFFFFFFFFCFC96
:10562800000000000000000000003F3F3F3F000076
:10563800000000000000000000000F0F0F0F000026
:105648000000000000000000000000000000000052
:105658000000000000000F0F3F3F000000003F3F28
:105668000F0F000000000000000000000000000014
:105678000000000000000000000000000000000022
:105688000000000000000000000000000000000012
:1056980000000000C0C0FCFCFCFCC0C0FCFCFCFC22
:1056A800C0C00000C0C0FFFFFFFFC0C0FFFFFFFF7A
:1056B800C0C0000000000F0F0F0F00000F0F0F0FEA
:1056C80000000000000000000000F0F0F0F0000012
:1056D80000000000FCFCFFFF0303030303030F0F9C
:1056E8003C3C0000F0F0C3C3030303030303FFFFC4
:1056F800FCFC00000000030303033F3F3F3F03039C
:105708000000000000000000000000000000000091
:1057180000000000F0F0F0F0000000000000C0C041
:10572800F0F000000000C0C0F0F03C3C0F0F030395
:10573800000000000F0F03030000000000000F0F1F
:105748000F0F000000000000000000000000000033
:105758000000000000003C3CFFFFC3C3FFFF3C3CCF
:1057680000000000FCFCFFFF03030F0FFCFCFFFF21
:105778000303000003030F0F0C0C0C0C03030F0FA3
:105788000C0C000000000000C0C0C0C000000000F9
:1057980000000000000030303F3F0F0F0000000005
:1057A80000000000000000000000000000000000F1
:1057B80000000000000000000000000000000000E1
:1057C80000000000000000000000000000000000D1
:1057D8000000000000000000F0F0FCFC0F0F0303C5
:1057E8000000000000000000FFFFFFFF00000000B5
:1057F8000000000000000000000003030F0F0C0C65
:105808000000000000000000000000000000000090
:10581800000000000000000003030F0FFCFCF0F084
:10582800000000000000000000000000FFFFFFFF74
:1058380000000000000000000C0C0F0F0303000024
:105848000000000000000000000000000000000050
:10585800000000000000C0C0C0C000000000C0C0C0
:10586800C0C000000C0CCCCCFFFF3F3F3F3FFFFF08
:10587800CCCC0C0C00000000000000000000000070
:105888000000000000000000000000000000000010
:1058980000000000000000000000C0C0C0C0000000
:1058A8000000000000000C0C0C0CFFFFFFFF0C0CAC
:1058B8000C0C0000000000000000000000000000C8
:1058C80000000000000000000000000000000000D0
:1058D80000000000000000000000000000000000C0
:1058E80000000000000000000000C0C0C0C00000B0
:1058F800000000000000000030303F3F0F0F0000A4
:10590800000000000000000000000000000000008F
:10591800000000000000000000000000000000007F
:10592800000000000C0C0C0C0C0C0C0C0C0C0C0CDF
:105938000C0C000000000000000000000000000047
:10594800000000000000000000000000000000004F
:10595800000000000000000000000000000000003F
:10596800000000000000000000000000000000002F
:10597800000000000000000000000F0F0F0F0000E3
:10598800000000000000000000000000000000000F
:105998000000000000000000000000000000C0C07F
:1059A800F0F000000000C0C0F0F03C3C0F0F030313
:1059B800000000000F0F03030000000000000000BB
:1059C80000000000000000000000000000000000CF
:1059D80000000000FCFCFFFF03030303C3C3FFFF39
:1059E800FCFC0000FFFFFFFF30300F0F0000FFFF3F
:1059F800FFFF000003030F0F0C0C0C0C0C0C0F0F17
:105A08000303000000000000000000000000000088
:105A180000000000000030303C3CFFFFFFFF0000AA
:105A280000000000000000000000FFFFFFFF000072
:105A38000000000000000C0C0C0C0F0F0F0F0C0CDA
:105A48000C0C000000000000000000000000000036
:105A5800000000000C0C0F0F03030303C3C3FFFF78
:105A68003C3C0000C0C0F0F03C3C0F0F03030000BA
:105A7800000000000F0F0F0F0C0C0C0C0C0C0F0F7C
:105A88000F0F0000000000000000000000000000F0
:105A9800000000000C0C0F0F030303030303FFFFB8
:105AA800FCFC000000000000030303030303FFFFE6
:105AB800FCFC000003030F0F0C0C0C0C0C0C0F0F5C
:105AC80003030000000000000000000000000000C8
